:020000040800F2
:100000004058002061020008690200086B020008E5
:100010006D0200086F020008710200080000000075
:10002000000000000000000000000000A101000826
:100030007502000800000000FD01000855220008BC
:100040007B0200087B0200087B0200087B0200089C
:100050007B0200087B0200087B0200087B0200088C
:100060007B0200087B0200087B0200087B0200087C
:100070007B0200087B0200087B0200087B0200086C
:100080007B0200087B0200087B0200087B0200085C
:100090007B0200087B0200087B0200087B0200084C
:1000A0007B0200087B0200087B0200087B0200083C
:1000B0007B0200087B0200087B0200087B0200082C
:1000C0007B0200087B0200087B0200087B0200081C
:1000D0007B0200087B0200087B0200087B0200080C
:1000E0007B0200087B0200087B0200087B020008FC
:1000F0007B0200087B0200080000000000000000F6
:1001000000000000000000007B0200087B020008E5
:1001100000000000000000007B0200087B020008D5
:100120007B0200087B0200087B0200087B020008BB
:100130007B0200087B0200087B0200087B020008AB
:100140007B0200080000000000000000000000002A
:10015000000000000000000000000000000000009F
:1001600000000000000000007B0200087B02000885
:100170007B020008000000002123000800000000AE
:10018000000000007B020008DFF810D000F0AAFA9F
:100190000048004711320008AFF3008040580020AB
:1001A0002C4B19680868B0E8F04F80F30988BFF35A
:1001B0006F8F4FF0000080F311887047000000003F
:1001C00008480068006880F308884FF0000080F35A
:1001D000148862B661B6BFF34F8FBFF36F8F00DF35
:1001E00000BF00BF08ED00E0DFF80C00016841F43B
:1001F00070010160704700BF88ED00E0EFF30980F7
:10020000BFF36F8F134B1A681EF0100F08BF20ED5D
:10021000108A20E9F04F106009B44FF0500080F3CD
:100220001188BFF34F8FBFF36F8F03F055FC4FF072
:10023000000080F3118809BC19680868B0E8F04F25
:100240001EF0100F08BFB0EC108A80F30988BFF3CE
:100250006F8F704740000020EFF30580704700006B
:100260000648804706480047FEE7FEE7FEE7FEE750
:10027000FEE7FEE7FEE7FEE7FEE7FEE70D230008E8
:10028000890100082DE9F05F0546002092469B4653
:1002900088460646814640241BE02846414647469C
:1002A000224600F020F853465A46C01A914110D316
:1002B00011461846224600F04EF82D1A67EB010849
:1002C0004F4622460120002100F045F817EB0009B7
:1002D0004E41201EA4F10104DFDC484631462A4687
:1002E0004346BDE8F09F202A04DB203A21FA02F0C1
:1002F0000021704721FA02F3D040C2F12002914060
:10030000084319467047D2B201E000F8012B491E9C
:10031000FBD270470022F6E710B513460A460446A2
:100320001946FFF7F0FF204610BD30B50B460146D9
:1003300000202022012409E021FA02F59D4205D384
:1003400003FA02F5491B04FA02F52844151EA2F12E
:100350000102F1DC30BD202A04DB203A00FA02F170
:10036000002070479140C2F1200320FA03F31943A3
:10037000904070472DE9FE4F804681EA0300C00F90
:100380000C46009021F0004123F00045B8EB02003C
:10039000A94105D24046214690461C460B460246DE
:1003A00023F00040104347D0270DC7F30A00C3F3E2
:1003B0000A510290401A019040286BDAC3F31300EF
:1003C00040F4801B0098924620B10023D2EB030A30
:1003D00063EB0B0B01985946C0F140025046FFF702
:1003E000BAFF06460D4650465946019A00F08CF970
:1003F00010EB08006141002487EA115284EAE77398
:100400001A4340D0009A62B3019A012A4FEA075278
:1004100015DC001B61EB02014FF0004202EA0752BB
:10042000CDE90042001C41F5801132462B4600F018
:100430008CF903B0BDE8F08F40462146F9E7001B78
:1004400061EB0201001C41F5801300185B4120188C
:10045000A2F5001747EB030140EAD570B6196D41CC
:1004600011E06D084FEA360645EAC0754FEA0752BB
:10047000001B61EB0201001C41F5801149084FEAA5
:1004800030000019514132462B4603B0BDE8F04F11
:1004900000F04CB90098012240000023D0EB02028A
:1004A00063EBE073009821464FEAE074B8EB00007C
:1004B00061EB0401E9E783F000435BE781F0004171
:1004C00058E72DE9FE4F81EA030404F0004421F0CF
:1004D000004100944FF0000B23F0004350EA010468
:1004E0005ED052EA03045BD0C3F30A54C1F30A5549
:1004F0002C44A4F2F3340194A0FB0254C1F3130181
:1005000041F48011C3F3130343F4801301FB02444D
:1005100000FB034E840A970A44EA815447EA835752
:10052000A4FB076802958D0A05FB07854FEA932C0B
:1005300004FB0C542705029D4FEA065847EA16377C
:10054000B5EB08056EEB070C870E920E47EA811794
:1005500042EA8312A7FB0201B6EB0B0164EB000435
:100560002B0D43EA0C335E1844EB1C50DA4651461F
:10057000E7FB0201C5F313044FEA0B3343EA1453BC
:100580004FEA0432019C43EA0603A4F10C040294EE
:10059000009CCDE900B400F0D8F803B0BDE8F08FBE
:1005A00000200146F9E72DE9F04D81EA030404F04B
:1005B000004B21F0004514464FF0000A23F00041A3
:1005C00050EA050220D054EA01021DD0C5F30A57B3
:1005D0000246C5F31303C1F31300C1F30A5640F4F6
:1005E000801543F48013A7EB0608101BD64608F2CB
:1005F000FD3873EB050002D308F1010801E0921801
:100600005B41B8F1000F03DA00200146BDE8F08D30
:1006100000204FF48011064684460EE0171B73EB52
:10062000050705D3121B63EB050306434CEA010CD7
:1006300049084FEA300092185B4150EA0107EDD1BA
:1006400052EA030012D082EA040083EA050108435B
:1006500005D0101BAB4106D20122002306E0002288
:100660004FF0004302E06FF0010253101AEB060056
:100670004CEB085110EB0A0041EB0B01BDE8F04DCB
:1006800000F054B8C1F30A52C1F3130140F2FF3332
:1006900041F480119A4202DA00200146704740F28C
:1006A00033439A42A2F2334202DC5242FFF71BBEAE
:1006B000FFF751BE30B5041E71F1000404DB4FF0AA
:1006C0000044404264EB0101141E73F1000405DB99
:1006D0001C464FF00043524263EB0403994208BFAB
:1006E000904230BD064C074D06E0E06840F0010343
:1006F00094E8070098471034AC42F6D3FFF748FD62
:100700001041000830410008202A06DBCB17203AB0
:1007100041FA02F043EAE07306E041FA02F3D04006
:10072000C2F12002914008431946704710B5141ECB
:1007300073F1000408DA401C41F1000192185B419A
:100740001A4301D120F0010010BD2DE9F04D924671
:100750009B4611B1B1FA81F202E0B0FA80F2203288
:100760009046FFF7F8FD04460F4640EA0A0041EACA
:100770000B0153465A46084313D0114653EA010071
:1007800019D0C8F140025046FFF7ADFD05460E46B0
:10079000504659464246FFF7DEFD084305D001208A
:1007A00004E020463946BDE8F08D0020054346EAC6
:1007B000E0762C4337430A986305E40AA0EB08006F
:1007C0000022FD0A44EA47540A3002D500200146BF
:1007D000E9E7010510196941DDE90845001969419A
:1007E000BDE8F04DA2E703E041F2EC3000F05AF82A
:1007F000FAE7000018E09FED0D0B53EC102B0DA055
:1008000002F076F89FED110B53EC102B11A002F0C3
:100810006FF89FED180B53EC102B18A002F068F83E
:1008200041F2883000F03EF8E5E700007A008BFCEA
:10083000FA2109403D3D3D3D3D70696E72663A6664
:100840006C6F61743D2025660A0D0A00756B7E543D
:10085000346F9D413D3D3D3D3D3D3D3D3D70696EAB
:1008600072663A666C6F6174203D2025660A0D0A37
:100870000000000074D3ADF90124FE403D3D3D3D34
:100880003D3D3D3D3D3D70696E72663A666C6F61FF
:1008900074203D2025660A0D0A00000072B600BFD4
:1008A000FEE7000070B5044600F0F6F8064625465F
:1008B000681C10B104480078054400BF00F0ECF853
:1008C000801BA842FAD370BD1000002078B5034603
:1008D0000A460021C5E001268E40156805EA060497
:1008E000002C73D0157905F00305012D04D015797E
:1008F00005F00305022D13D198684E000325B5407D
:10090000A8434E00D568B540284398605868012533
:100910008D40A8431579C5F300158D4028435860D4
:10092000157905F00305032D09D0D8684E0003257D
:10093000B540A8434E009568B5402843D860157966
:1009400005F00305022D13D1CE0803F1200555F85B
:1009500026004D07EE0E0F25B540A8434E07F60EB4
:100960001569B5402843CE0803F1200545F8260057
:1009700018684E000325B540A843157905F0030516
:100980004E00B54028431860556805F44035002DE9
:1009900066D000BF364DAD6945F00105344EB561F6
:1009A0003546AD6905F00105009500BF00BF4FEA6F
:1009B000B6358E0855F826008D072E0F0F25B54049
:1009C000A843B3F1904F02D1002515E048E0294D2E
:1009D000AB4201D101250FE0274DAB4201D10225E9
:1009E0000AE0264DAB4201D1032505E0244DAB4280
:1009F00001D1042500E005258E07360FB5402843B8
:100A0000204D8E0845F826001F4D2868A0435568E4
:100A100005F4801505B120431B4D28602D1D286865
:100A2000A043556805F4001505B12043164D2D1D52
:100A30002860154D2D1F2868A043556805F4003522
:100A400005B12043104D2D1F28602D1F2868A0439D
:100A5000556805F4803505B120430B4D083D2860ED
:100A6000491C1568CD40002D7FF435AF78BD0000DE
:100A7000001002400004004800080048000C004834
:100A80000010004808000140080401400AB18161DB
:100A900000E0816270470000014800687047000074
:100AA0000800002003480068034909780844014908
:100AB00008607047080000201000002010B50848AA
:100AC000006840F0100006490860032000F0C6F8F6
:100AD0000F2000F007F800F053F8002010BD0000D0
:100AE00000200240F0B587B004460026002700BF72
:100AF0001E48806940F400201C49886108468069CE
:100B000000F40020009000BF00BF01A902A800F07F
:100B10004BFB00F087FB06461548B6FBF0F0471E7E
:100B200014481549086040F2E7311348C160476036
:100B3000002101618160816101F0EEF8054695B9FF
:100B40000D4801F01DF905466DB94E2000F038F84A
:100B5000102C07D2002221464E2000F041F8074811
:100B6000046000E00125284607B0F0BD00100240F7
:100B700040420F00005C01400C0100200C000020EE
:100B800008B500BF0D48806940F001000B4988613D
:100B90000846806900F00100009000BF00BF00BF60
:100BA0000846C06940F08050C8610846C06900F03E
:100BB0008050009000BF00BF08BD00000010024040
:100BC00001460846002809DB00F01F0301229A4075
:100BD00043099B0003F1E023C3F8002100BF7047E5
:100BE0002DE9F05F80460D461646002701F090FE85
:100BF000074639462A46334601F00700C0F1070A86
:100C0000BAF1040F02D94FF0040A01E0C0F1070A5B
:100C1000D14600F1040ABAF1070F02D24FF0000AE0
:100C200001E0A0F1030AD4464FF0010A0AFA09FADA
:100C3000AAF1010A0AEA020A0AFA0CFA4FF0010BB9
:100C40000BFA0CFBABF1010B0BEA030B4AEA0B04AA
:100C50002146404601F064FEBDE8F09F00BF00F071
:100C60000702064B19684FF6FF031940044B0B436C
:100C700043EA0221014B196000BF70470CED00E010
:100C80000000FA05F8B50446002600250027206874
:100C900000F48030B0F5803F74D19548C06900F011
:100CA000805070B900BF9248C06940F080509049B0
:100CB000C8610846C06900F08050009000BF00BFC6
:100CC00001278C48006800F48070B0B9894800683A
:100CD00040F4807087490860FFF7DEFE064606E0B4
:100CE000FFF7DAFE801B642801D90320F8BD814894
:100CF000006800F480700028F2D07D48006A00F49B
:100D00004075002D6CD0A08800F44070A84267D0D8
:100D10007748006A20F440750120010491FAA1F19E
:100D2000B1FA81F1744A02EB8101C1F8000400209C
:100D30004FF4803191FAA1F1B1FA81F102EB810116
:100D4000C1F800046A48056205F00100B8B3FFF776
:100D5000A3FE064608E0FFF79FFE801B41F28831A4
:100D6000884201D90320C1E74020022191FAA1F174
:100D7000B1FA81F108430121B1EB601F03D15C4856
:100D800000681FE03BE04020022191FAA1F1B1FA96
:100D900081F108430221B1EB601F02D15448006A7F
:100DA00010E04020022191FAA1F1B1FA81F108434B
:100DB0000421B1EB601F03D14D48406802E00FE011
:100DC0004B48406A4021022292FAA2F2B2FA82F221
:100DD000114301F01F020121914008400028BAD0C0
:100DE0004348006A20F44070616808434049086243
:100DF000012F04D10846C06920F08050C8612078D6
:100E000000F0010038B13A48006B20F00300A168FF
:100E1000084337490863207800F00200022807D110
:100E20003348006B20F44030E168084330490863E0
:100E3000207800F00400042807D12D48006B20F42E
:100E40004020216908432A490863207800F02000E7
:100E5000202807D12648006B20F010006169084364
:100E600023490863206800F40030B0F5003F07D143
:100E70001F48406820F48000A16A08431C4948606C
:100E8000207800F04000402807D11948006B20F07E
:100E90002000A169084316490863207800F080000B
:100EA000802807D11248406820F44040E169084397
:100EB0000F494860208800F40060B0F5006F07D14A
:100EC0000B48406820F07840216A08430849486090
:100ED000208800F48060B0F5806F07D10448006B73
:100EE00020F04000616A0843014908630020FDE6E4
:100EF00000100240007000400000424270B50446FD
:100F00000D4600260CB9012070BDA248006800F013
:100F10000700A8420ED29F48006820F0070028432F
:100F20009C4908600846006800F00700A84201D00C
:100F30000120E9E7207800F00200022807D1964856
:100F4000406820F0F000A168084393494860207889
:100F500000F0010000287CD0606801283BD12020EF
:100F6000010391FAA1F1B1FA81F108430121B1EB3A
:100F7000601F02D1884800681DE02020010391FA1B
:100F8000A1F1B1FA81F108430221B1EB601F02D156
:100F90008148006A0FE02020010391FAA1F1B1FA23
:100FA00081F108430421B1EB601F02D17A48406807
:100FB00001E07948406A20210A0392FAA2F2B2FACB
:100FC00082F2114301F01F020121914008400028E4
:100FD0007CD1012098E7606802283BD120200105E0
:100FE00091FAA1F1B1FA81F108430121B1EB601F3F
:100FF00002D1694800681DE02020010591FAA1F1A5
:10100000B1FA81F108430221B1EB601F02D16248BD
:10101000006A0FE02020010591FAA1F1B1FA81F1F7
:1010200008430421B1EB601F02D15B48406801E036
:101030005948406A20210A0592FAA2F2B2FA82F2D5
:10104000114301F01F02012191400840E8BB01203B
:101050005AE758E02020022191FAA1F1B1FA81F17A
:1010600008430121B1EB601F02D14B4800681DE02D
:101070002020022191FAA1F1B1FA81F10843022165
:10108000B1EB601F02D14448006A0FE0202002212A
:1010900091FAA1F1B1FA81F108430421B1EB601F8B
:1010A00002D13D48406801E03B48406A20210222CD
:1010B00092FAA2F2B2FA82F2114301F01F02012168
:1010C0009140084008B901201EE7FFE73248406818
:1010D00020F00300616808432F494860FFF7DCFCFB
:1010E000064608E0FFF7D8FC801B41F288318842B1
:1010F00001D9032008E72848406800F00C00616827
:10110000B0EB810FEED12348006800F00700A84241
:101110000ED92048006820F0070028431D490860C8
:101120000846006800F00700A84201D00120EBE665
:10113000207800F00400042807D11748406820F404
:10114000E060E168084314494860207800F0080036
:10115000082808D11048406820F46050216940EA0E
:10116000C1000D49486000F073F80B49496801F06F
:10117000F001F02292FAA2F2B2FA82F2D140074ACA
:10118000515CC8400649086006480068FFF7AAFCA1
:101190000020B9E60020024000100240F84000089C
:1011A000140000200C0000200F2202600D4A52683B
:1011B00002F0030242600B4A526802F0F0028260C1
:1011C000084A526802F4E062C260064A526802F4B9
:1011D0006052D2080261044A126802F007020A60F3
:1011E00070470000001002400020024001480068E3
:1011F000704700001400002000B5FFF7F7FF074913
:10120000496801F4E0614FF4E06292FAA2F2B2FAA6
:1012100082F2D140024A515CC84000BD0010024039
:101220000841000800B5FFF7E1FF0749496801F4EC
:1012300060514FF4605292FAA2F2B2FA82F2D140B7
:10124000024A515CC84000BD00100240084100083D
:101250002DE9F0410024002500270026A0461F4864
:10126000446804F00C0078B3042802D008282CD17C
:1012700002E0DFF86C802CE004F470104FF4701181
:1012800091FAA1F1B1FA81F1C84016490E5C1348F8
:10129000C06A00F00F000F2191FAA1F1B1FA81F1BB
:1012A000C84011490D5C04F4803040B12A46002347
:1012B0000B481946FEF7E6FFA0FB067102E00B485B
:1012C000A0FB0671B84604E000E000BFDFF8108024
:1012D00000BF00BF4046BDE8F081000000100240A2
:1012E00000127A00D8400008E840000800093D00DC
:1012F000F8B504460CB90120F8BD207800F00100D3
:1013000000287BD0FA48406800F00C0004280CD07C
:10131000F748406800F00C00082845D1F4484068C0
:1013200000F48030B0F5803F3ED12020010391FAD7
:10133000A1F1B1FA81F108430121B1EB601F02D1A3
:10134000EB4800681DE02020010391FAA1F1B1FAF9
:1013500081F108430221B1EB601F02D1E448006A29
:101360000FE02020010391FAA1F1B1FA81F10843C5
:101370000421B1EB601F02D1DD48406801E0DC4888
:10138000406A20210A0392FAA2F2B2FA82F21143D1
:1013900001F01F020121914008400028B1D060688F
:1013A00000282BD10120A7E700BF6068B0F5803F7F
:1013B00006D1CF48006840F48030CD49086029E06C
:1013C000606858B9CA48006820F48030C84908608D
:1013D0000846006820F4802008601BE06068B0F5D3
:1013E000A02F0CD1C248006840F48020C04908609A
:1013F0000846006840F4803008600BE0A1E0BC487B
:10140000006820F48030BA4908600846006820F47B
:101410008020086000BFB648C06A20F00F00A168B5
:101420000843B349C8626068A0B3FFF735FB0546BF
:1014300006E0FFF731FB401B642801D903205BE77E
:101440002020010391FAA1F1B1FA81F108430121B1
:10145000B1EB601F02D1A64800681EE02020010306
:1014600091FAA1F1B1FA81F108430221B1EB601FB9
:1014700002D19F48006A10E02020010391FAA1F1F7
:10148000B1FA81F108430421B1EB601F03D1984800
:10149000406802E010E09648406A20210A0392FA70
:1014A000A2F2B2FA82F2114301F01F02012191402F
:1014B00008400028BDD044E0FFF7EEFA054606E0FC
:1014C000FFF7EAFA401B642801D9032014E7202023
:1014D000010391FAA1F1B1FA81F108430121B1EBC5
:1014E000601F02D1824800681DE02020010391FAAC
:1014F000A1F1B1FA81F108430221B1EB601F02D1E1
:101500007B48006A0FE02020010391FAA1F1B1FAB3
:1015100081F108430421B1EB601F02D17448406897
:1015200001E07348406A20210A0392FAA2F2B2FA5B
:1015300082F2114301F01F0201219140084000286E
:10154000BED1207800F0020002285CD168484068D3
:1015500000F00C0050B16648406800F00C0008280C
:1015600052D16348406800F48030E8BB202002215B
:1015700091FAA1F1B1FA81F108430121B1EB601FA9
:1015800002D15B4800681DE02020022191FAA1F100
:10159000B1FA81F108430221B1EB601F02D1544836
:1015A000006A0FE02020022191FAA1F1B1FA81F145
:1015B00008430421B1EB601F02D14D48406801E0AF
:1015C0004B48406A2021022292FAA2F2B2FA82F239
:1015D000114301F01F0201219140084028B1206908
:1015E000012802D0012087E60EE04148006820F083
:1015F000F800F82292FAA2F2B2FA82F261699140FE
:1016000008433B490860B1E0206970B3012191FAB9
:10161000A1F0B0FA80F0374A42F82010FFF73CFA08
:10162000054606E0FFF738FA401B022801D90320DF
:1016300062E62020022191FAA1F1B1FA81F108437A
:101640000121B1EB601F02D1294800681EE0202073
:10165000022191FAA1F1B1FA81F108430221B1EB23
:10166000601F03D12248006A10E02CE020200221F4
:1016700091FAA1F1B1FA81F108430421B1EB601FA5
:1016800002D11B48406801E01948406A202102222B
:1016900092FAA2F2B2FA82F2114301F01F02012182
:1016A000914008400028BDD01148006820F0F800A3
:1016B000F82292FAA2F2B2FA82F2616991400843EA
:1016C0000B49086052E00020012191FAA1F1B1FA22
:1016D00081F1084A42F82100FFF7DEF905460BE0E8
:1016E000FFF7DAF9401B022806D9032004E60000C0
:1016F00000100240000042422020022191FAA1F194
:10170000B1FA81F108430121B1EB601F02D1FB481E
:1017100000681DE02020022191FAA1F1B1FA81F1C7
:1017200008430221B1EB601F02D1F448006A0FE0C8
:101730002020022191FAA1F1B1FA81F1084304219C
:10174000B1EB601F02D1ED48406801E0EB48406A10
:101750002021022292FAA2F2B2FA82F2114301F09F
:101760001F020121914008400028B9D1207800F0E3
:101770000800082851D1A06980B3012191FAA1F095
:10178000B0FA80F0DE4A02EB8000C0F88014FFF768
:1017900083F9054606E0FFF77FF9401B022801D9CF
:1017A0000320A9E56020022191FAA1F1B1FA81F1AB
:1017B00008430121B1EB601F02D1D04800681EE050
:1017C0006020022191FAA1F1B1FA81F108430221CE
:1017D000B1EB601F03D1C948006A10E01EE0602031
:1017E000022191FAA1F1B1FA81F108430421B1EB90
:1017F000601F02D1C148406801E0C048406A6021D2
:10180000022292FAA2F2B2FA82F2114301F01F020E
:101810000121914008400028BDD04FE00020012167
:1018200091FAA1F1B1FA81F1B54A02EB8101C1F857
:101830008004FFF731F9054606E0FFF72DF9401B5C
:10184000022801D9032057E56020022191FAA1F175
:10185000B1FA81F108430121B1EB601F02D1A74821
:1018600000681DE06020022191FAA1F1B1FA81F136
:1018700008430221B1EB601F02D1A048006A0FE0CB
:101880006020022191FAA1F1B1FA81F1084304210B
:10189000B1EB601F02D19948406801E09748406A67
:1018A0006021022292FAA2F2B2FA82F2114301F00E
:1018B0001F020121914008400028BED1207800F08D
:1018C0000400042873D100278C48C06900F08050C0
:1018D00070B900BF8948C06940F080508749C8612D
:1018E0000846C06900F08050009000BF00BF01278B
:1018F0008448006800F48070B0B98248006840F401
:10190000807080490860FFF7C7F8054606E0FFF7DA
:10191000C3F8401B642801D90320EDE4794800682E
:1019200000F480700028F2D000BFE068012806D1E2
:101930007248006A40F001007049086227E0E068E0
:1019400058B96E48006A20F001006C4908620846E8
:10195000006A20F00400086219E0E06805280BD155
:101960006648006A40F00400644908620846006A5C
:1019700040F0010008620AE06048006A20F00100BF
:101980005E4908620846006A20F00400086200BF51
:10199000E068B8B3FFF780F8054609E0FFF77CF888
:1019A000401B41F28831884202D90320A4E48BE035
:1019B0004020022191FAA1F1B1FA81F108430121FD
:1019C000B1EB601F02D14D4800681EE040200221AB
:1019D00091FAA1F1B1FA81F108430221B1EB601F44
:1019E00002D14648006A10E04020022191FAA1F19C
:1019F000B1FA81F108430421B1EB601F03D13F48E4
:101A0000406802E010E03D48406A4021022292FA1C
:101A1000A2F2B2FA82F2114301F01F0201219140B9
:101A200008400028BAD046E0FFF736F8054608E03F
:101A3000FFF732F8401B41F28831884201D9032078
:101A40005AE44020022191FAA1F1B1FA81F1084350
:101A50000121B1EB601F02D1284800681DE0402041
:101A6000022191FAA1F1B1FA81F108430221B1EB0F
:101A7000601F02D12148006A0FE04020022191FA44
:101A8000A1F1B1FA81F108430421B1EB601F02D149
:101A90001A48406801E01948406A4021022292FA3F
:101AA000A2F2B2FA82F2114301F01F020121914029
:101AB00008400028BCD1012F05D11048C06920F092
:101AC00080500E49C86100BFE069002874D00B48FF
:101AD000406800F00C0008286FD0E06902286DD142
:101AE00000204FF0807191FAA1F1B1FA81F1044A1E
:101AF00042F82100FEF7D0FF05460CE0001002403E
:101B00000000424200700040FEF7C6FF401B022862
:101B100001D9032047E42020010591FAA1F1B1FA8F
:101B200081F108430121B1EB601F02D177480068C1
:101B30001DE02020010591FAA1F1B1FA81F10843DD
:101B40000221B1EB601F02D17048006A0FE0202033
:101B5000010591FAA1F1B1FA81F108430421B1EB39
:101B6000601F02D16948406801E06848406A20214E
:101B70000A0592FAA2F2B2FA82F2114301F01F02B0
:101B80000121914008400028BED1D4E90810084343
:101B90005E49496821F4741108435C49486001209A
:101BA000010691FAA1F1B1FA81F1594A42F82100F6
:101BB000FEF772FF054609E0A5E092E041E0FEF77E
:101BC0006BFF401B022801D9032038E420200105C7
:101BD00091FAA1F1B1FA81F108430121B1EB601F43
:101BE00002D14A4800681DE02020010591FAA1F1C8
:101BF000B1FA81F108430221B1EB601F02D14348E1
:101C0000006A0FE02020010591FAA1F1B1FA81F1FB
:101C100008430421B1EB601F02D13C48406801E059
:101C20003A48406A20210A0592FAA2F2B2FA82F2F8
:101C3000114301F01F020121914008400028BED04D
:101C400061E000204FF0807191FAA1F1B1FA81F1C9
:101C50002F4A42F82100FEF71FFF054606E0FEF777
:101C60001BFF401B022801D903202FE4202001057F
:101C700091FAA1F1B1FA81F108430121B1EB601FA2
:101C800002D1224800681DE02020010591FAA1F14F
:101C9000B1FA81F108430221B1EB601F02D11B4868
:101CA000006A0FE02020010591FAA1F1B1FA81F15B
:101CB00008430421B1EB601F02D11448406801E0E1
:101CC0001248406A20210A0592FAA2F2B2FA82F280
:101CD000114301F01F020121914008400028BED1AC
:101CE00011E0E069012800D17DE40848466806F467
:101CF0008031206A814204D106F47011606A814209
:101D000001D001206FE400206DE4000000100240CB
:101D1000000042427047704710B504460CB90120DC
:101D200010BD94F83D0028B9002084F83C002046FE
:101D300000F025F8022084F83D00211D206800F005
:101D4000F7FA012084F8480000BF84F83E00012122
:101D50003F200155402001554120015500BF00BFE3
:101D6000012084F8440045200155462001554720B4
:101D7000015500BF012084F83D000020D0E77047E6
:101D8000014691F83D00012801D001207047022052
:101D900081F83D000868C06840F001000B68D86019
:101DA0000868B0F1804F17D0164B0868984213D0DE
:101DB000154B086898420FD0144B086898420BD016
:101DC000134B0868984207D0124B0868984203D01A
:101DD000114B086898420CD10868806800F007022F
:101DE000062A0CD00868006840F001000B681860F3
:101DF00005E00868006840F001000B6818600020EA
:101E0000C4E700000004004000080040000C00404F
:101E10000018004000400140005C0140704710B5D0
:101E2000044620680069C0F34000D8B12068C0684B
:101E3000C0F34000B0B16FF00200216808610120DA
:101E400020772068806900F0030018B12046FFF772
:101E5000E5FF05E0204600F0ADF8204600F0ABF8C5
:101E60000020207720680069C0F38000D8B1206886
:101E7000C068C0F38000B0B16FF004002168086151
:101E8000022020772068806900F4407018B1204655
:101E9000FFF7C4FF05E0204600F08CF8204600F074
:101EA0008AF80020207720680069C0F3C000D8B10C
:101EB0002068C068C0F3C000B0B16FF008002168AE
:101EC0000861042020772068C06900F0030018B181
:101ED0002046FFF7A3FF05E0204600F06BF8204600
:101EE00000F069F80020207720680069C0F3001036
:101EF000D8B12068C068C0F30010B0B16FF0100016
:101F000021680861082020772068C06900F44070CB
:101F100018B12046FFF782FF05E0204600F04AF89E
:101F2000204600F048F8002020772068006900F083
:101F3000010058B12068C06800F0010030B16FF0B6
:101F4000010021680861204600F036F82068006929
:101F5000C0F3C01058B12068C068C0F3C01030B1E1
:101F60006FF08000216808612046FFF7D3FE2068EB
:101F70000069C0F3801058B12068C068C0F38010B9
:101F800030B16FF0400021680861204600F020F871
:101F900020680069C0F3401058B12068C068C0F3E1
:101FA000401030B16FF02000216808612046FFF733
:101FB000B2FE10BD7047704710B504460349206853
:101FC000884201D1FEF76EFD10BD0000005C0140AB
:101FD000704710B504460CB9012010BDA06900B1CE
:101FE00000E000BFE06F28B9002084F878002046A8
:101FF00000F02AF82420E0672068006820F0010043
:1020000021680860204600F01BFB012800D1E4E7AE
:10201000606A10B1204600F0F1F92068406820F4B1
:102020009040216848602068806820F02A0021687C
:1020300088602068006840F0010021680860204640
:1020400000F058FAC9E7000010B586B00446142124
:1020500001A8FEF75FF91849206888422AD100BF1D
:102060001648806940F480401449886108468069B8
:1020700000F48040009000BF00BF00BF08464069E8
:1020800040F4003048610846406900F40030009098
:1020900000BF00BF4FF4C0600190022002900020FA
:1020A0000390032004900720059001A94FF0904071
:1020B000FEF70CFC06B010BD0038014000100240D5
:1020C0002DE9F84F04460E4617469946E06F202842
:1020D00051D106B117B90120BDE8F88F0020503466
:1020E00060632120E062FEF7D7FC8246278067808C
:1020F000503CA068B0F5805F04D1206910B900257C
:10210000B04602E035464FF000081FE0534600227B
:1021100080212046CDF8009000F098FB18B12020D7
:10212000E0670320D8E745B9B8F80000C0F308001D
:102130002168088508F1020803E0287821680885ED
:102140006D1CB4F85200401EA4F85200B4F85200BE
:102150000028DBD15346002240212046CDF80090D4
:1021600000F074FB18B12020E0670320B4E72020C2
:10217000E0670020B0E70220AEE7000000B587B0BE
:10218000142102A8FEF7C6F800BF1D48406940F4BC
:1021900080001B4948610846406900F480000190B6
:1021A00000BF00BF00BF0846406940F4801048618E
:1021B0000846406900F48010019000BF00BF00BFD6
:1021C0000846406940F4003048610846406900F420
:1021D0000030019000BF00BF002289150948FEF7BA
:1021E00055FC4FF480700290012003900020049071
:1021F000059002A90348FEF769FB07B000BD000087
:1022000000100240000C004810B51048104908604A
:102210004FF4E130486000210D488160C1600161E8
:102220000C21416100218161C161016230200849B6
:1022300048624FF48051064881634900C163FFF74B
:10224000C8FE08B1FEF72AFB10BD000000380140AF
:102250008400002010B500BF502080F31188BFF328
:102260004F8FBFF36F8F00BF01F088FD18B14FF0A3
:1022700080500449086000BF002080F3118800BF2F
:1022800010BD000004ED00E000B59BB0282111A8AE
:10229000FEF740F814210CA8FEF73CF82C2101A809
:1022A000FEF738F8012011900004129000201390DE
:1022B0000120159002201890C10319914FF4E011EC
:1022C0001A9111A8FFF714F808B1FEF7E7FA0F20EA
:1022D0000C9002200D9000200E904FF480600F9023
:1022E0000020109002210CA8FEF708FE08B1FEF7AE
:1022F000D5FA012001900020039001A8FEF7C2FC4E
:1023000008B1FEF7CBFA1BB000BD0000034800681F
:1023100040F47000014908607047000088ED00E05B
:1023200010B50248FFF77BFD10BD00000C01002036
:1023300010B50268B0F1804F0BD0264B984208D000
:10234000254B984205D0254B984202D0244B984209
:1023500003D122F070024B681A43B0F1804F1DD0B8
:102360001C4B98421AD01C4B984217D01B4B9842DA
:1023700014D01C4B984211D01B4B98420ED01B4BD3
:1023800098420BD01A4B984208D01A4B984205D06D
:10239000194B984202D0124B984203D122F440725A
:1023A000CB681A4322F080034C6943EA04020260BE
:1023B0008B68C3620B6883620D4B984205D00D4B4E
:1023C000984202D00C4B984201D10B690363012360
:1023D000436110BD0004004000080040000C0040B4
:1023E000005C014000180040001C0040002000403C
:1023F00000400140004401400048014090F8241092
:1024000001F0010139B10168496821F40031826AA3
:1024100011430268516090F8241001F00201022972
:1024200007D10168496821F48031C26A114302680A
:10243000516090F8241001F00401042907D10168CB
:10244000496821F48021026B11430268516090F8C1
:10245000241001F00801082907D10168496821F416
:102460000041426B11430268516090F8241001F062
:102470001001102907D10168896821F48051826B0D
:1024800011430268916090F8241001F02001202986
:1024900007D10168896821F40051C26B11430268B9
:1024A000916090F8241001F04001402913D1016897
:1024B000496821F48011026C114302685160016C7B
:1024C000B1F5801F07D10168496821F4C001426C51
:1024D00011430268516090F8241001F080018029B6
:1024E00007D10168496821F40021826C1143026818
:1024F0005160704738B504460020C4F88400FEF7E8
:10250000CBFA05462068006800F00800082820D1B2
:102510006FF07E402B4600224FF4001100902046C1
:1025200000F094F9A8B100BF00BF216851E8001F76
:1025300021F08000226842E800010029F5D100BFA7
:102540002020E06700BF002084F8780000BF03204F
:1025500038BD2068006800F00400042830D16FF016
:102560007E402B4600224FF480010090204600F070
:102570006DF928B300BF00BF216851E8001F21F4A6
:102580009070226842E800010029F5D100BF00BF29
:1025900000BF2168083151E8001F21F001002168C7
:1025A000083141E80002002AF3D100BF2020C4F81E
:1025B000800000BF002084F8780000BF0320C7E738
:1025C0002020E067C4F8800000202066606600BF1D
:1025D00084F8780000BF00BFBAE700BF00BF026800
:1025E00052E8002F22F49071036843E80012002A99
:1025F000F5D100BF00BF00BF0268083252E8002FCB
:1026000022F001010268083242E80013002BF3D1E6
:1026100000BF016E01290CD100BF00BF026852E863
:10262000002F22F01001036843E80012002AF5D1C0
:1026300000BF2021C0F8801000210166816670472C
:102640002DE9F04704464FF0000A2169A0680843CD
:1026500061690843E16940EA01082068006849F2BD
:102660000C61884340EA08002168086020684068DF
:1026700020F44050E168084321684860D4F818808D
:10268000206A40EA08082068806820F4306040EA48
:1026900008002168886000BF67492068884216D119
:1026A0006648006B00F0030030B1012808D0022812
:1026B00008D0032808D101E0012507E0022505E044
:1026C000042503E0082501E0102500BF3CE05C493B
:1026D0002068884219D15948006B00F4403048B155
:1026E000B0F5803F0AD0B0F5003F09D0B0F5403FCB
:1026F00008D101E0002507E0022505E0042503E0FC
:10270000082501E0102500BF1EE04E4920688842E0
:1027100019D14A48006B00F4402048B1B0F5802F31
:102720000AD0B0F5002F09D0B0F5402F08D101E054
:10273000002507E0022505E0042503E0082501E067
:10274000102500BF00E0102500BFE069B0F5004F84
:1027500039D1092D17D2DFE805F005090D160F163E
:1027600016161300FEF748FD064610E0FEF75AFD68
:1027700006460CE0344E0AE0FEF76AFD064606E027
:102780004FF4004603E000264FF0010A00BF00BFEF
:1027900086B37000616800EB5100B0FBF1F7102FB9
:1027A0000ED3B7F5803F0BD24FF6F07007EA000961
:1027B000C7F3420049EA00092068C0F80C9034E0F1
:1027C0004FF0010A31E0092D18D2DFE805F00509C4
:1027D0000D170F1717171400FEF70EFD064611E030
:1027E000FEF720FD06460DE0174E0BE0FEF730FD2C
:1027F000064607E019E04FF4004603E000264FF0DC
:10280000010A00BF00BF86B1606806EB5000616836
:10281000B0FBF1F7102F06D3B7F5803F03D2B8B263
:102820002168C86001E04FF0010A0020A066E06660
:102830005046BDE8F087000000380140001002401B
:10284000004400400048004000127A002DE9F041A9
:1028500004460D4617469846069E3CE0701CC8B3D9
:10286000FEF71AF9A0EB0800B04200D816B9032011
:10287000BDE8F0812068006800F0040050B32068D3
:10288000C069C0F3C00078B1082021680862204602
:10289000FFF7A3FE0820C4F8840000BF002084F8DE
:1028A000780000BF0120E3E72068C069C0F3C020C2
:1028B00080B14FF40060216808622046FFF78DFE6A
:1028C0002020C4F8840000BF002084F8780000BFF6
:1028D0000320CDE7FFE72068C0692840A84201D166
:1028E000012000E00020B842B8D00020C0E700007E
:1028F0000FB4054B10B503A9044A029800F0F6F88E
:1029000010BC5DF814FB0000F531000880000020C9
:1029100002480068C0F30220704700000CED00E0A0
:1029200010B5002804DB0A07130E054A135406E00D
:102930000A07140E034A00F00F031B1FD45410BDE6
:1029400000E400E018ED00E002E008C8121F08C132
:10295000002AFAD170477047002001E001C1121F20
:10296000002AFBD1704700002DE9FF5F82B00021F3
:10297000DDE90430020DDDF840B0034318D044F621
:102980001050A2F2FF3242431514119801281FD0B3
:10299000A5EB0B00401C5FEA000A4FF000064E4F0B
:1029A000DFF83891B046504615D5CAF1000413E05F
:1029B000119801244AA3012801D16FEA0B01029862
:1029C000119AC0E90031C0E9024206B0BDE8F09FAB
:1029D000CBF10000DFE704460021404A491842EBF2
:1029E0000450CDE9001012E0E00707D032463B4624
:1029F00040464946FDF765FD8046894632463B46DE
:102A000010461946FDF75DFD06460F466410002C82
:102A1000EAD1DDE90401DDE90023BAF1000F06DAAD
:102A2000FDF74FFD42464B46FDF74BFD05E0FDF738
:102A3000BAFD42464B46FDF7B6FD04460E4600225F
:102A4000284BFDF737FE03D84FF0FF30014607E073
:102A50000022254B20463146FDF78CFCFDF712FE87
:102A6000102409E0002C0ADB0A220023FDF70AFCEF
:102A7000039B30321A55641E50EA0102F2D1641CE5
:102A8000039AC4F111031444119A012A03D00122BC
:102A900008430DD10AE0084304D000204FF0110B89
:102AA000119072E7A3EB0B056D1E0DE05B4504DD95
:102AB0004FF0000205F1010504E003DA4FF00002D7
:102AC000A5F10105002AECD002981199C0E9023164
:102AD000C0E9004579E70000000014400000F03F25
:102AE000300000000000F0430000E03F2DE9FF4F00
:102AF00095B09A46884606460025EEE1252877D10E
:102B000000242746F94A0121039400E0044316F803
:102B1000013F203B01FA03F01042F7D130782A2818
:102B200011D06FF02F033078A0F13002092A16D8A7
:102B3000039A44F0020402EB820203EB42021044C7
:102B4000761C0390EFE758F8042B0392002A03DA6F
:102B5000504244F40054039044F00204761C307850
:102B60002E2816D116F8010F44F004042A280DD09F
:102B70006FF02F023078A0F13003092B09D807EB52
:102B8000870302EB4303C718761CF3E758F8047B6E
:102B9000761C30786C280FD006DC4C2817D06828BB
:102BA0000DD06A2814D104E0742810D07A280FD1EF
:102BB0000DE044F400140AE044F4801401E044F40D
:102BC00040147278824202D104F58014761C761C7F
:102BD000307866280BD013DC582877D009DC002821
:102BE00075D04528F6D04628F4D047281AD193E16D
:102BF00018E0632835D0642879D0652812D18BE19C
:102C0000702873D008DC6728F1D069286FD06E284F
:102C10000DD06F2806D1ACE073282CD0752874D065
:102C2000782853D05246179990476D1C54E1C4F34D
:102C30000250022809D003280DD0D8F8001004282B
:102C40000DD00D6008F1040846E1D8F80010EA172D
:102C5000C1E90052F6E7D8F800100D80F2E70D70D8
:102C6000F0E718F8041B8DF8001000208DF8010023
:102C7000EB46012003E058F804BB4FF0FF3061073A
:102C80004FF0000102D40DE009F101018946B9427B
:102C90000FDA8145F8DB1BF809100029F4D108E0B0
:102CA00009F1010189468142FADB1BF8091000296C
:102CB000F6D103985346A0EB090721463846179AE8
:102CC00000F080FA284400EB090507E044E008E141
:102CD0000DE01BF8010B524617999047B9F1010915
:102CE000F7D2534621463846179AF2E039E00A21D6
:102CF000C4F302524FF0000B0091022A06D058F89C
:102D0000040BC117032A09D00AE023E008F10700E9
:102D100020F00702F2E80201904605E000B2C11778
:102D2000042A01D140B2C117002906DA0A4600215F
:102D3000404261EB02012D2202E0220504D52B2244
:102D40008DF80420012203E0E20701D02022F7E7FA
:102D5000914657E00A2100E010214FF0000B00914E
:102D60000BE010214FF0000B44F004040827009101
:102D700003E008204FF0000B0090C4F30252022A37
:102D800005D058F8040B0021032A08D008E008F108
:102D9000070020F00702F2E80201904603E080B24B
:102DA000042A00D1C0B24FF0000922072AD5327898
:102DB000702A07D0DDF800C08CF0100C5CEA0B0C18
:102DC00005D00EE040228DF80420012208E050EAF0
:102DD000010306D030238DF804308DF8052002223F
:102DE0009146009B83F0080353EA0B030AD150EA93
:102DF000010201D1620705D530228DF804204FF081
:102E000001097F1E3278582A04D039A20C920CAAEC
:102E100002920BE03BA2F9E75B46009AFDF732FA1B
:102E20000C9B9B5C029A521E0292137050EA0102A4
:102E3000F2D1029804A9081A00F1200B600702D50C
:102E400024F4803400E001275F4502DDA7EB0B008E
:102E500000E0002000EB0B01009003984944401A69
:102E60000390E00306D453462146179A039800F0D6
:102E7000A9F90544002706E001A85246C05D17994C
:102E800090476D1C7F1C4F45F6DBE0030CD5534685
:102E90002146179A039800F095F9054404E0302084
:102EA0005246179990476D1C0099481E00900029C2
:102EB000F5DC08E00298029952460078491C02911C
:102EC000179990476D1CBBF10001ABF1010BF1DCD0
:102ED0005BE100F065F90544761C307800287FF44A
:102EE0000DAE19B02846BDE8F08F0000092801009A
:102EF0003031323334353637383961626364656670
:102F00000000000030313233343536373839414231
:102F10004344454600000000600700D4062708F13E
:102F2000070020F00700F0E80223804603F0004C81
:102F30005FEA0C0001D097A009E0200501D596A01A
:102F400005E0E00701D095A001E0AFF24C0013903E
:102F5000307823F0004365280CD006DC452809D0E2
:102F600046281DD047287FD13BE0662818D0672827
:102F70007AD136E00021112F01DB112000E0781C0E
:102F8000CDE9000104A90CA8FFF7EEFCDDE90D0175
:102F90000C9A4FF0000B07F10109109200914EE0DE
:102FA0004FF000400097CDE9011004A90CA8FFF7ED
:102FB000DBFCDDE90D020C9B0F994FF0000B9146F5
:102FC0001093009211B9791C00EB0109B7EB0900CD
:102FD00003D4C0F1FF3B07F10109A9EB0700019001
:102FE00042E0012F00DA01270021112F01DD11201D
:102FF00000E03846CDE9000104A90CA8FFF7B4FCB5
:10300000DDE90D010C9A00914FF0000BB9461092CA
:1030100021070FD4009A4A4503DA914601E0A9F14D
:103020000109B9F1010F05DD109AA9F10101515C07
:103030003029F4D0B84202DA10F1040F03DA01218A
:10304000CDE9011010E0002803DC8344A9EB000166
:1030500002E0411C494500DD8946A0EB0B00401C05
:1030600001904FF000400290200705D40198484598
:1030700002DB4FF0FF30019000208DF84B000298EA
:103080000DF14B07B0F1004F25D002200C902B2002
:103090000D90029800280CDA404202902D200D90ED
:1030A00007E00A210298FDF740F93031029007F855
:1030B000011D0C99481E0C900029F2DC0298002892
:1030C000EFD1791E0D980870307800F0200040F0A4
:1030D000450007F8020D11A8C01BC01D02901398EF
:1030E000007800B1012000EB0901019801EBE071CB
:1030F000029801440398401A401E0390E00306D44E
:1031000053462146179A039800F05CF8054413983B
:10311000007818B15246179990476D1CE00323D5EB
:1031200053462146179A039800F04CF805441BE0DB
:10313000BBF1000F07DB0098584504DD1098179984
:1031400010F80B0001E01799302052469047019883
:103150000BF1010B401E05F10105019004D12E2059
:103160005246179990476D1CB9F10001A9F1010968
:10317000DEDC05E017F8010B5246179990476D1CED
:103180000299481E02900029F4DC53462146179A02
:1031900003989EE62D0000002B0000002000000098
:1031A0002DE9F041044600251E461746880404D444
:1031B00005E039462020B0476D1C641EF9D528462D
:1031C000BDE8F0812DE9F041044600251E469046F9
:1031D000C80301D5302700E02027880404D505E086
:1031E00041463846B0476D1C641EF9D52846BDE8F7
:1031F000F081000013B50C464FF47A730122694642
:103200000248FEF75DFF00981CBD0000840000200E
:103210001CB50124FDF752FCFFF736F8FEF7AEFFB0
:10322000FEF7F2FF0D48052100236202CDE90010F0
:103230000BA10F4800F06EFD04460E480521002347
:103240004FF40072CDE900100BA10F4800F062FDB1
:1032500004460CB100F0E4FB00BFFEE700000020D4
:103260004170705461736B43726561746500000056
:10327000E7070008040000204170705461736B433D
:1032800072656174655F3200F507000810B5044689
:1032900000F0E4FA2F480068401C2E4908602E48D0
:1032A000006840B92C4804600846006801280DD128
:1032B00000F03EF90AE02948006838B9264800685D
:1032C000C06AE16A884201D8234804602448006843
:1032D000401C2349086094F82C10012088402149A3
:1032E000096808431F490860E16A01EB81011E4A31
:1032F00002EB81014868A0608268E260211D82685B
:1033000051608160E16A01EB8101174A02EB8102A1
:103310006261E16A01EB8101134A52F82110491CF4
:10332000E26A02EB8202104B43F8221000F0D8FA56
:103330000A48006868B108480068C06AE16A8842C3
:1033400007D24FF0805009490860BFF34F8FBFF399
:103350006F8F10BD50000020400000205C00002056
:103360006C000020580000205851002004ED00E0BF
:1033700010B516E000F072FA0C48C068C468201D51
:1033800000F048FA0A480068401E094908600948E8
:103390000068401E0749086000F0A2FA204600F0CD
:1033A0000BF8044800680028E4D110BD1454002034
:1033B000500000204C00002010B50446206B00F0A7
:1033C000C5FA204600F0C2FA10BD000030B54FF437
:1033D000A043154800F007042CB1C01D20F00700E1
:1033E000114C041B1B1B0246104C226000240F4D85
:1033F0006C60D018083820F007000D4C20600024C5
:103400000B4D2D686C600A4D2D682C601146441AD6
:103410004C60074C24680C60064D4C682C60064DCF
:103420004C682C6030BD00005801002018000020BE
:1034300020000020280000202400002000BFFFF70B
:1034400097FF064800680128F9D94FF080500449D9
:103450000860BFF34F8FBFF36F8FF0E75851002024
:1034600004ED00E02DE9FF5F81460E469246DDE95E
:103470000E7B109CAAF10100216B01EB800828F063
:10348000070808F0070008B9012000E0002028B96B
:1034900040F25D321EA122A0FFF72AFA7EB100257C
:1034A00007E0715D04F134004155705D00B902E040
:1034B0006D1C102DF5D300BF002143200155202F96
:1034C00001D2012000E0002028B940F2923210A180
:1034D00013A0FFF70DFA202F00D31F27E762201D4E
:1034E00000F0B9F904F1180000F0B5F92461C7F152
:1034F0002000A061646249464046039A00F074F9D6
:103500002060BBF1000F01D0CBF80040BDE8FF9F69
:103510002E2E5C52544F535C7461736B732E630098
:103520004572726F723A25732C25640D0A000000F3
:1035300010B5002407E004EB84010F4A02EB810080
:1035400000F07CF9641C202CF5D30C4800F076F9CF
:103550000B4800F073F90B4800F070F90A4800F0CE
:103560006DF90A4800F06AF90448094908600448FE
:103570000849086010BD000058510020D8530020B1
:10358000EC53002000540020145400202854002044
:10359000440000204800002010B50146164800E015
:1035A000006803688B42FBD30246436813448B4296
:1035B00004D143684C682344436001460A464B6883
:1035C00013440468A34211D10C4C03682468A3423D
:1035D00008D04B680468646823444B6003681B6828
:1035E0000B6005E0054B1B680B6001E003680B6096
:1035F000884200D0016010BD18000020200000208B
:1036000009480068006808B9012000E0002020B1E6
:103610004FF0FF300549086005E003480068C068C6
:1036200000680249086070474400002070000020D4
:103630000B480068401C08B9012000E0002020B9B8
:10364000EC2208A111A0FFF753F900BF502080F32E
:103650001188BFF34F8FBFF36F8F00BF00BFFEE72E
:10366000340000202E2E5C52544F535C706F7274E5
:1036700061626C655C525644535C41524D5F434DF0
:1036800034465C706F72742E630000004572726F76
:10369000723A25732C25640D0A0000002DE9F047CD
:1036A00005464FF0000900F00FFA3D48006808B9E0
:1036B000FFF78CFE75B105F00700C0F11008C8F1E6
:1036C000FF30A84201D2012000E0002008B94544A3
:1036D00000E00025012000EBE57000284DD0002D12
:1036E0004BD030480068854247D82F4E304604689A
:1036F00001E0264624686068A84202D220680028BB
:10370000F7D127480068844237D0306800F10809B3
:10371000206830606068401B102813D9671907F0D3
:10372000070008B9012000E0002020B9DC221FA119
:1037300027A0FFF7DDF86068401B786065603846B9
:10374000FFF72AFF174960680968081A15490860D9
:103750000846006822490968884203D21148006877
:103760001F490860606840F00040606000202060F1
:103770001C480068401C1B49086000F0E7FB09F08A
:10378000070008B9012000E0002028B94FF48E722C
:1037900006A10FA0FFF7ACF84846BDE8F08700008F
:1037A0002000002024000020180000202E2E5C5253
:1037B000544F535C706F727461626C655C4D656DE3
:1037C0004D616E675C686561705F342E6300000058
:1037D0004572726F723A25732C25640D0A00000041
:1037E000280000202C000020001F4FF08073036091
:1037F000001F21F001030360001F054B0360143814
:103800000260001F6FF00203036020387047000061
:103810003136000801460A69D1E901309860D1E9E2
:10382000010358605068884201D1886850600020C8
:1038300008611068401E10601068704700F10801B0
:1038400041604FF0FF31816000F10801C16001610A
:1038500000210160704700210161704710B500BF71
:10386000502080F31188BFF34F8FBFF36F8F00BFDD
:103870000B480068401C0A49086008460068012897
:103880000DD108480068C0B208B9012000E000204E
:1038900028B940F2B91204A10DA0FFF729F810BD14
:1038A0003400002004ED00E02E2E5C52544F535C97
:1038B000706F727461626C655C525644535C415225
:1038C0004D5F434D34465C706F72742E6300000090
:1038D0004572726F723A25732C25640D0A00000040
:1038E00010B50B48006828B94FF4E07209A113A085
:1038F000FEF7FEFF06480068401E054908600846BE
:10390000006820B9002080F3118800BF00BF10BDFF
:10391000340000202E2E5C52544F535C706F727432
:1039200061626C655C525644535C41524D5F434D3D
:1039300034465C706F72742E630000004572726FC3
:10394000723A25732C25640D0A00000070B50646F6
:103950003546002E31D0083D2C466068C00F28B98E
:1039600040F22F1215A11EA0FEF7C2FF206808B971
:10397000012000E0002028B94FF498720FA118A090
:10398000FEF7B6FF6068C00FB8B12068A8B96068DC
:1039900020F00040606000F097F815496068096801
:1039A0000844134908602046FFF7F6FD11480068F7
:1039B000401C1049086000F0C9FA70BD2E2E5C5200
:1039C000544F535C706F727461626C655C4D656DD1
:1039D0004D616E675C686561705F342E6300000046
:1039E0004572726F723A25732C25640D0A0000002F
:1039F000240000203000002000204FF0E02108616A
:103A00008861064800684FF47A71B0FBF1F0401EFF
:103A10004FF0E02148610720086170471400002042
:103A20001CB5194800210B468022CDE9001017A1D2
:103A3000184800F06FF90446012C15D100BF502042
:103A400080F31188BFF34F8FBFF36F8F00BF4FF02C
:103A5000FF3011490860012010490860002010491A
:103A6000086000F08BF80BE0601C08B1012000E05A
:103A7000002028B940F612020AA10EA0FEF738FF76
:103A8000104800681CBD00007400002049444C45EB
:103A9000000000003D340008700000205C000020A1
:103AA000540000202E2E5C52544F535C7461736B93
:103AB000732E63004572726F723A25732C25640D64
:103AC0000A0000007800002002480068401C0149FC
:103AD000086070477C00002010B51B48006818B1D2
:103AE00001201A4908602DE0002018490860184894
:103AF0000068B0FA80F0C0F11F0404EB840015499F
:103B000051F8200008B1012000E0002028B940F65B
:103B1000F63211A114A0FEF7EBFE04EB84010D4A6E
:103B200002EB810041684968416000F10801426888
:103B30008A4202D14168496841604168C9680E4AB9
:103B4000116000BF10BD00007C0000206400002058
:103B500058000020585100202E2E5C52544F535CC8
:103B60007461736B732E63004572726F723A2573C2
:103B70002C25640D0A000000400000201CB55048B0
:103B800000685049884201D0012000E0002028B997
:103B90004FF4A3724CA156A0FEF7AAFE4848006855
:103BA0004849491E884201D0012000E0002028B980
:103BB00040F2471244A14EA0FEF79AFE504C204618
:103BC00000780190FF202146087008460078009098
:103BD0009DF8000000F0F0009DF80010884201D12F
:103BE000012000E0002028B94FF4B07236A140A0B7
:103BF000FEF77EFE9DF8000000F05000414908707D
:103C000007204149086009E03F480068401E3E49DE
:103C100008609DF800004006000E00909DF800002E
:103C200000F080008028EFD037480068C0F107001E
:103C3000042801D1012000E0002028B94FF4BA7215
:103C400021A12BA0FEF754FE2F480068C0F1070009
:103C5000042801D1012000E0002028B940F27D12A3
:103C600019A123A0FEF744FE274800680002264958
:103C700008600846008800F4E06008602049019868
:103C800008700F482030006840F470000C49203163
:103C900008600846006840F070400860FFF7ACFE1E
:103CA00000201A490860FCF79FFA1948006840F0A4
:103CB000404017490860FCF783FA00201CBD000053
:103CC00000ED00E071C20F412E2E5C52544F535C48
:103CD000706F727461626C655C525644535C415201
:103CE0004D5F434D34465C706F72742E630000006C
:103CF0004572726F723A25732C25640D0A0000001C
:103D000000E400E0380000203C00002034000020E7
:103D100034EF00E02DE9FF4F85B080468946174615
:103D2000DDE912ABB800FFF7B9FC064676B14C20CE
:103D3000FFF7B4FC04462CB14C212046FCF7EAFA0C
:103D4000266304E03046FFF701FE00E000247CB16A
:103D50000020CDE900ABCDE902403A464946404655
:103D6000089BFFF77FFB2046FFF790FA012501E053
:103D70004FF0FF35284609B0BDE8F08F2DE9F0413E
:103D80004FF000085E48006800287DD15D4800685B
:103D9000451C5C480560EDB95B480068006808B9DF
:103DA000012000E0002028B940F6B72257A15BA00F
:103DB000FEF79EFD544807685C4800685249086059
:103DC0005A4807605A480068401C59490860FFF784
:103DD00017FC00BF57480068854277D300BF4A48A8
:103DE0000068006808B9012000E0002020B14FF011
:103DF000FF305049086068E043480068C068C46804
:103E00006668B54202D24B4806605EE06069D4E95C
:103E100002128A60D4E902214A60211D42688A4266
:103E200001D1E1684160002262610168491E0160C0
:103E3000A06A98B1A06AD4E907128A60D4E9072180
:103E40004A6004F1180142688A4201D1216A416046
:103E50000022A2620168491E016000BF94F82C1084
:103E60000120884034490968084333490860E16A01
:103E700001EB8101314A02EB81014868A060826850
:103E8000E260211D826800E032E051608160E16AF9
:103E900001EB8101294A02EB81026261E16A01EBD7
:103EA0008101264A52F82110491CE26A02EB820283
:103EB000224B43F822102249E06A0968C96A884205
:103EC0008DD94FF001088AE700E000BF1C48006868
:103ED000C06A00EB8000194951F82000012801D97F
:103EE0004FF001081748006808B14FF0010804E0DE
:103EF00015480068401C144908604046BDE8F08140
:103F00007C00002054000020440000202E2E5C5233
:103F1000544F535C7461736B732E63004572726F00
:103F2000723A25732C25640D0A0000004800002019
:103F30006800002070000020580000205851002028
:103F400040000020640000206000002070B50024C4
:103F500000265048006828B940F685024EA152A0BC
:103F6000FEF7C6FCFFF77AFC4A480068401E494944
:103F700008600846006800287ED14F480068002885
:103F80007AD05BE04D48C068C468A06AD4E90712E3
:103F90008A60D4E907214A6004F1180142688A4224
:103FA00001D1216A41600022A2620168491E0160BC
:103FB0006069D4E902128A60D4E902214A60211DB5
:103FC00042688A4201D1E168416000226261016871
:103FD000491E016094F82C10012088403849096876
:103FE000084337490860E16A01EB8101354A02EB79
:103FF00081014868A0608268E260211D826851608A
:104000008160E16A01EB81012E4A02EB810262616B
:10401000E16A01EB81012B4A52F82110491CE26A46
:1040200002EB8202274B43F822102749E06A096815
:10403000C96A884202D30120244908601F480068E9
:1040400008B9012000E0002000289BD00CB1FFF748
:10405000D7FA1F48056865B100BFFFF78FFE10B1A2
:1040600001201A4908606D1E002DF6D10020184964
:1040700008601648006800E008E038B10126300703
:1040800014490860BFF34F8FBFF36F8FFFF728FC11
:10409000304670BD7C0000202E2E5C52544F535C85
:1040A0007461736B732E63004572726F723A25737D
:1040B0002C25640D0A000000500000200054002050
:1040C00058000020585100204000002064000020CB
:1040D0006000002004ED00E0020304050607080963
:1040E0000A0B0C0D0E0F1010010203040506070841
:1040F000090A0B0C0D0E0F1000000000000000005C
:10410000010203040607080900000000010203047D
:104110003041000800000020840000004829000809
:10412000B441000884000020BC5700005829000852
:10413000000000000000000000000000100000006F
:104140000100000000127A000000000000000000E2
:10415000000000000000000000000000000000005F
:1041600000000000AAAAAAAA0000000000000000A7
:10417000000000000000000000000000000000003F
:10418000000000000000000000000000000000002F
:10419000000000000000000000000000000000001F
:1041A00000000000000000001F00000000000000F0
:0441B000000000000B
:040000050800018965
:00000001FF
